:020000040800F2
:1000000030BB002029030008E57100085961000891
:1000100069700008190C0008FDAC00080000000021
:10002000000000000000000000000000690200085D
:100030003D20000800000000C5020008C17D000846
:100040004303000843030008430300084303000878
:1000500043030008430300083F200008430300084F
:100060004303000843030008430300084303000858
:10007000C9150008430300084303000843030008B0
:100080004303000843030008430300082D0C000845
:100090001D0C000843030008430300084303000845
:1000A00043030008C17E000843030008430300081F
:1000B0004303000843030008430300084303000808
:1000C00043030008430300084303000843030008F8
:1000D00043030008430300084303000843030008E8
:1000E00043030008430300084303000843030008D8
:1000F00043030008430300084303000843030008C8
:1001000043030008430300084303000843030008B7
:1001100043030008430300084303000843030008A7
:1001200043030008D91500084303000843030008EF
:100130004303000843030008430300084D0C000874
:100140003D0C00084303000843030008E971000860
:10015000E9150008F9150008091600084988000883
:100160004303000843030008430300084303000857
:100170004303000843030008430300080000000095
:10018000430300084303000800F002F800F05CF8A5
:100190000AA090E8000C82448344AAF10107DA45E2
:1001A00001D100F051F8AFF2090EBAE80F0013F0D8
:1001B000010F18BFFB1A43F001031847641B01002D
:1001C000841B01000A444FF0000C10F8013B13F0AF
:1001D000070408BF10F8014B1D1108BF10F8015BA0
:1001E000641E05D010F8016B641E01F8016BF9D193
:1001F00013F0080F1EBF10F8014BAD1C0C1B09D1EA
:100200006D1E58BF01F801CBFAD505E014F8016B5B
:1002100001F8016B6D1EF9D59142D6D370470000ED
:100220000023002400250026103A28BF78C1FBD8FF
:10023000520728BF30C148BF0B6070471FB510F090
:1002400048FE1FBD10B510BD00F0BAF91146FFF70A
:10025000F5FF0DF0D7F800F0D8F903B4FFF7F2FF7F
:1002600003BC00F0DBF900002C4B19680868B0E80B
:10027000F04F80F30988BFF36F8F4FF0000080F3D9
:10028000118870470000000008480068006880F38B
:1002900008884FF0000080F3148862B661B6BFF39F
:1002A0004F8FBFF36F8F00DF00BF00BF08ED00E08E
:1002B000DFF80C00016841F470010160704700BF75
:1002C00088ED00E0EFF30980BFF36F8F134B1A68DE
:1002D0001EF0100F08BF20ED108A20E9F04F1060CB
:1002E00009B44FF0500080F31188BFF34F8FBFF374
:1002F0006F8F0EF067FF4FF0000080F3118809BC8C
:1003000019680868B0E8F04F1EF0100F08BFB0EC95
:10031000108A80F30988BFF36F8F7047780300203D
:10032000EFF30580704700000948804709480047FF
:10033000FEE7FEE7FEE7FEE7FEE7FEE7FEE7FEE795
:10034000FEE7FEE704480549054A064B70470000F2
:10035000AD7E00088901000830B5002030BB0020C8
:1003600030B7002030B7002053EA020C00F069805B
:100370002DE9F04B4FF00006002B1FBFB3FA83F5B9
:1003800003FA05F424FA05F65E4012BF1643B2FAEA
:1003900082F502FA05F4C5F120051EBF22FA05FC1C
:1003A00044EA0C04203556EA044C4FEA144418BFC2
:1003B000641C4FF000084FF00009904271EB030CF1
:1003C00039D3002919BFB1FA81F701FA07F6B0FA5B
:1003D00080F700FA07F6C7F120071EBF20FA07FCD6
:1003E00046EA0C062037B6FBF4FCA7EB0507103FE6
:1003F00007F01F0BCBF120060CFA0BFB2CFA06F6CC
:1004000044BFB3460026202FA4BF5E464FF0000B2A
:100410005BEA060C08BF4FF0010B19EB0B09ABFBB5
:10042000027C48EB0608C01B06FB02CC0BFB03CC8E
:1004300071EB0C01C1E70B46024641464846BDE858
:10044000F08B13B54FF000004FF00001AFF30080C8
:10045000BDE81C407047032A40F2308010F0030CC6
:1004600000F0158011F8013BBCF1020F624498BF07
:1004700011F801CB00F8013B38BF11F8013BA2F1A4
:10048000040298BF00F801CB38BF00F8013B11F01F
:10049000030300F02580083AC0F0088051F8043BBF
:1004A000083A51F804CBA0E80810F5E7121D5CBF2C
:1004B00051F8043B40F8043BAFF30080D20724BF5F
:1004C00011F8013B11F801CB48BF11F8012B24BFF3
:1004D00000F8013B00F801CB48BF00F8012B704742
:1004E00010B5203AC0F00B80B1E81850203AA0E8CF
:1004F0001850B1E81850A0E81850BFF4F5AF5FEA03
:10050000027C24BFB1E81850A0E8185044BF18C9B5
:1005100018C0BDE810405FEA827C24BF51F8043B5C
:1005200040F8043B08BF7047D20728BF31F8023BB0
:1005300048BF11F8012B28BF20F8023B48BF00F844
:10054000012B70474FF0000200B5134694469646C3
:10055000203922BFA0E80C50A0E80C50B1F12001D6
:10056000BFF4F7AF090728BFA0E80C5048BF0CC084
:100570005DF804EB890028BF40F8042B08BF7047E2
:1005800048BF20F8022B11F0804F18BF00F8012B54
:10059000704770477047704710B500F009F8006861
:1005A00010BD10B5044600F003F8046010BD000053
:1005B00000487047CCB4002000487047CCB40020FD
:1005C0007546FFF7F9FFAE4605006946534620F031
:1005D0000700854618B020B5FFF7B4FEBDE82040FF
:1005E0004FF000064FF000074FF000084FF0000BEF
:1005F00021F00701AC46ACE8C009ACE8C009ACE8A2
:10060000C009ACE8C0098D46704710B50446AFF389
:1006100000802046BDE81040FFF71FBE01491820AA
:10062000ABBEFEE7260002007047000000BF06F0E8
:10063000F1FC0EF0DDFA3048012102682F489047A6
:100640002D48022102682E48904700F03FFC01F03F
:10065000E9FCB0EE003AF1EE002AB2EE042ADFED3A
:10066000291A9FED291ADFED290A9FED290A294849
:1006700006F0FCFFB1EE0C3AF1EE0C2AB3EE042AC0
:10068000DFED201A9FED241ADFED240A9FED240AE6
:10069000244806F0EBFFB0EE003AF1EE002AB2EE8D
:1006A000042ADFED1F1A9FED201ADFED200A9FEDCF
:1006B000200A204806F0DAFFB1EE0C3AF1EE0C2ADF
:1006C000B3EE042ADFED0F1A9FED101ADFED130AC7
:1006D0009FED190A194806F0C9FF00F039FD1848C6
:1006E00005F06AFD07F0AEF9164800680EF03EFC12
:1006F0000EF0A8FA9BE70000F0000020A00A0020FE
:10070000C80A0020000000006666A63F6F12833A08
:10071000CDCC4C3D441C00206F12033BBD378635C9
:100720008FC2F53C941C002014AE073F0AD7233D2E
:10073000B81E053EE41C00200AD7233C341D0020CF
:10074000400C00203C0000208AB000BF4FF0FF3278
:100750006946054800680FF03DF909AB07AA01A9F1
:10076000009801F0F2FDF1E70800002070B52DEDD2
:100770000A8B0446F0EE408AB0EE609AB0EE418AF1
:10078000C4ED008A84ED019A94ED000AD4ED010ACB
:1007900030EE600A84ED020AB0EE000AC8EE000AEC
:1007A00010EE905A284610F023FB41EC1A0B94ED02
:1007B000020A10EE101A084610F01AFB41EC1C0B4E
:1007C000B0EE4C0AF0EE6C0A0AF0FEFDB0EE40BA54
:1007D000F0EE60BA53EC1A2B51EC1B0B10F010F931
:1007E0001BD294ED020AB5EEC00AF1EE10FA0ADD52
:1007F00094ED020AF7EE000A78EE200A30EE600A65
:1008000084ED020A09E094ED020AF7EE000A78EEA0
:10081000200A30EE200A84ED020A94ED010AD4ED9C
:10082000030A30EE600A84ED040A94ED000AD4ED68
:10083000060A30EE600A84ED050A94ED070AD4ED4D
:10084000020A20EE200A84ED0B0A94ED0C0AD4ED86
:10085000080A94ED021A00EE810A84ED0C0A94ED68
:10086000020AD4ED030A30EE600AD4ED090A20EE44
:10087000200A84ED0D0A94ED0A0AD4ED050A20EE53
:10088000200A84ED0E0AD4ED120AB0EE600A04F1DB
:1008900030000CF0E9F894ED0B0AD4ED0C0A30EEC0
:1008A000200AD4ED0D0A30EE200AD4ED0E0A30EE07
:1008B000200A84ED0F0AD4ED100AB0EE600A04F1AC
:1008C0003C000CF0D1F894ED020A84ED030A94ED9B
:1008D000000A84ED060A94ED0F0ABDEC0A8B70BD88
:1008E00070B505460C4600260DB1022C00D870BD2F
:1008F000611EFF22284601F0E5FC0646601E2E54CC
:1009000000BFF4E770B586B0002004900590029017
:1009100003903D488089000A8DF810003A48007B1A
:100920008DF811003848008B00128DF812003648FF
:10093000007E8DF813003548D0F8760000EE100ADE
:10094000DFED330A20EE200ABDEEC00A10EE100AD9
:1009500005B2280A8DF81400E8B28DF815000020C1
:100960008DF816009DF816002749C97C01F0010199
:1009700008438DF816009DF816002349897E01F082
:10098000010140EA41008DF816009DF8160021494A
:10099000097801F0030140EA01108DF816009DF876
:1009A00016001D49097801F0010140EA41108DF857
:1009B000160004A80090194840F21F13002218499D
:1009C000466818480068B047174890ED000ABCEE2A
:1009D000C00A10EE104A200E8DF80800200C8DF889
:1009E0000900200A8DF80A00E0B28DF80B0004A877
:1009F00000900A4840F22F1300220949466809482E
:100A00000068B04706B070BD100F0020B80F00207E
:100A100000007A44B4000020B6000020F00000205E
:100A2000C80A002008000020B80000200FB49DF87C
:100A30001D009DF81C1040EA012000B200EE100AD3
:100A4000B8EEC00A2D4880ED000A9DF81F109DF8F1
:100A50001E0041EA002000B200EE100AB8EEC00A03
:100A6000274880ED000A9DF821109DF8200041EAFA
:100A7000002000B200EE100AB8EEC00A214880ED56
:100A8000000A9DF823109DF8220041EA002000B2E0
:100A900000EE100AB8EEC00A1B4880ED000A1748A5
:100AA00090ED000A194880ED000A154890ED000A03
:100AB000164880ED010A134890ED000ADFED140A94
:100AC00080EE201A114880ED021A1248007C90B97D
:100AD0001048C07E1049097888420CD10F4890ED2B
:100AE000020A0948D0ED000A9FED0D1A00EE810AB6
:100AF0000A4880ED020A04B0704700008800002018
:100B00008C0000209000002084000020381E00206F
:100B10000000C842100F002098000020141E002082
:100B20000AD7A33C0FB410B502AB5B7F9DF82440FD
:100B300043EA04231BB200EE903AF8EEE00AB0EE6E
:100B4000600A02ABDB7F03F001032C4CA37402AB01
:100B5000DB7FC3F34003237402ABDB7FC3F380036B
:100B6000637402ABDB7FC3F3C003A37302ABDB7F11
:100B7000C3F34113E37602ABDB7FC3F380129DF82E
:100B800029409DF8283044EA032318B29DF82B40F1
:100B90009DF82A3044EA032319B2194C2080618061
:100BA000164B1B7C012B21D1B5EEC00AF1EE10FAD9
:100BB00004D1144BD3ED020AB0EE600A124BD3ED10
:100BC000000ABFEE001A20EE811A104BD3ED000A86
:100BD000DFED0F1A41EE210AC3ED000AD3ED000A42
:100BE00070EE200A074BC3ED020A04E0DFED090AAC
:100BF000064BC3ED000A10BC5DF814FB100F00207B
:100C000094000020141E002084000020A800002072
:100C1000CDCC4C3D0000000000BFFEE710B50248FF
:100C200001F095FD10BD0000A00A002010B502489B
:100C300001F08DFD10BD0000A00A002010B5024893
:100C400001F085FD10BD0000C80A002010B5024863
:100C500001F07DFD10BD0000C80A002070B50446FB
:100C60000D460020206160616062A0610120E061AA
:100C70002062002020606060A060E060214628467D
:100C800001F008FC08B101F0DFF970BD70B5044651
:100C90000D46681EC6B206EB460101EB0611074A77
:100CA00002EB81002146FFF7D9FF204602F07DF8D4
:100CB0000221204601F034FB70BD0000D811002055
:100CC0002DE9F0418AB007460E4614461D46DDF870
:100CD000408001960CB9029500E003950494002130
:100CE00005910821069100218DF81C10D8F800000C
:100CF0000890D8F80400099000231A4601A9384644
:100D00000EF016FD0AB0BDE8F08104284FF0000097
:100D1000704700207047000010B5002204490548C4
:100D200007F0C4FF0449034807F0B2FF002010BDDC
:100D3000B02B0020D41E0020B023002038B505467B
:100D40000C4629460F4807F0A3FF0E4807F070FF36
:100D5000DFF834C000236A462946DCF800000EF0B4
:100D6000BBFD009939B1094A4FF080511160BFF3C2
:100D70004F8FBFF36F8F2188284689B200F00AF8A1
:100D8000002038BDD41E00200C00002004ED00E03F
:100D90000020704710B50A460849D1F8BC12D1F8B6
:100DA0001412002901D0012010BD0146034807F0AC
:100DB0007DFFBDE81040014808F010B8D41E0020A7
:100DC0008EB000BF4FF0FF3205A9114800680EF049
:100DD00001FE059CB4F5007F0DD9B4F5017F0AD85A
:100DE000142209A96846FFF77BFB0A48056805A895
:100DF0000FC8A847E6E7512CE4D1142209A9684698
:100E0000FFF76EFB0448456805A80FC8A847D9E757
:100E1000000000204C0100204002002090B000BFE4
:100E20004FF0FF3207A9254800680EF0D3FD079C5C
:100E300040F2062084420DD3B4F5027F0AD2142278
:100E40000BA96846FFF74CFB1D48456807A80FC86B
:100E5000A847E5E7052C12D141F2767014220BA9C0
:100E600005906846FFF73CFBB2EE041AF3EE040A65
:100E70009FED140A07A80FC800F0CCFCD0E740F2A1
:100E80000F1084420AD114220BA96846FFF728FBF1
:100E90000D48056807A80FC8A847C1E740F21F1012
:100EA0008442BDD114220BA96846FFF719FB0648FE
:100EB000456807A80FC8A847B2E700000400002053
:100EC0005C010020DA0F49409C00002010B540F280
:100ED0000121694805F005FB40F202216648C8304F
:100EE00005F0FFFA40F20321644805F0FAFA4FF4E6
:100EF00001716248C83005F0F4FA40F206216048FA
:100F000005F0D8FB40F207215E4805F0D3FB9FEDCA
:100F10005E3ADFED5E2A9FED5E2ADFED5E1A9FED01
:100F20005D1ADFED5D0AB2EE040A5348283006F080
:100F30009DFB9FED553ADFED552A9FED552ADFEDDC
:100F4000551A9FED541ADFED540AB2EE040A4B48CD
:100F5000A03806F08BFB9FED4C3ADFED4C2A9FED5D
:100F60004C2ADFED4C1A9FED4B1ADFED4B0AB2EE27
:100F7000040A4248283006F079FB9FED433ADFED42
:100F8000432A9FED432ADFED431A9FED421ADFED1E
:100F9000420AB2EE040A3948F03006F067FB9FEDD2
:100FA0003A3ADFED3A2A9FED3D2ADFED3A1A9FEDFE
:100FB0003C1ADFED380A9FED3B0A3148783006F0E5
:100FC00055FB9FED313ADFED312A9FED342ADFEDFD
:100FD000311A9FED331ADFED2F0A9FED320A2948AF
:100FE000783006F043FB9FED303ADFED2F2A9FED7E
:100FF000272ADFED281A9FED2D1ADFED2D0AB6EE18
:10100000000A1F48283006F031FB9FED273ADFED3C
:10101000262A9FED1E2ADFED1F1A9FED241ADFED11
:10102000240AB6EE000A1748283006F01FFB9FED91
:10103000163ADFED1D2A9FED152ADFED161AB1EEE7
:10104000001ADFED1C0AB2EE080A1B4806F00EFB80
:1010500000200949488100210748A0F8D210A0F8D3
:101060009A11A0F8621241F227000549486140F642
:101070008C200449486110BDDC1300206C15002051
:101080001C1A0020E41A00200080BB450060EA46DC
:101090000000FA4500000000AE47613E00C0DA459E
:1010A00000005C420000C84200401C46CDCC4C3DD4
:1010B000BD3786356F12833A641E002000201AE087
:1010C0000E4951F82010B1F84810012906DA012123
:1010D0000A4A52F8202082F84A1005E00021074A07
:1010E00052F8202082F84A100021044A52F82020A9
:1010F000A2F84810401C0128E2DB70477001002074
:101100009FED120A80ED000A9FED100A80ED010AA2
:101110009FED0E0A80ED020A9FED0C0A80ED040A95
:101120009FED0A0A80ED030A9FED080A80ED0B0A85
:101130009FED060A80ED0C0A9FED040A80ED0D0A72
:101140009FED020A80ED0F0A7047000000000000CA
:1011500010B5314890ED020A9FED301AC0EE010A39
:101160002F4890ED010A9FED2F1A00EE810A2E48BC
:1011700080ED020A2D4890ED002A2D48D0ED001A8E
:101180002C4890ED001A2C48D0ED000A2B4890ED29
:10119000000A234800F0F4FA1F4890ED020A9FED80
:1011A0001F1AC0EE010A1E4890ED010A9FED1D1A9C
:1011B00000EEC10A224880ED000A174890ED020AAD
:1011C0009FED161AC0EE010A154890ED010A9FED39
:1011D000151A00EE810A144880ED020AF2EE040AA4
:1011E000B7EE000A174806F029F8F2EE040AB7EE47
:1011F000000A154806F022F8F1EE080AB7EE000AD8
:10120000124806F01BF8F1EE080AB7EE000A104883
:1012100006F014F810BD00009C1300200000B44339
:10122000F81B002000000046141E0020FC010020D6
:10123000F8010020F4010020F0010020EC01002062
:10124000B8000020841D0020B00E0020B41D002036
:10125000E41D002010B52DED028B2348807B012872
:1012600006D100202149A1F84800BDEC028B10BD39
:101270001E4890F84600012803D11D498868804720
:1012800000E0F2E7194890ED010AB0EE408A90EDD7
:10129000010A1848D0ED000A30EE200AB0EE408A6C
:1012A000BDEEC80A144880ED000A9FED140AB4EEA2
:1012B000C08AF1EE10FA05DD9FED110A38EE400A02
:1012C000B0EE408ABFEE000A28EE000ADFED0C0AFD
:1012D00080EE201A9FED0B0A21EE000AF0EE408A04
:1012E00006F05EFD00BFC0E7100F0020F81B0020D5
:1012F00024020020E401002020020020000080459C
:10130000000000460000B44310B52DED048B944955
:1013100008780BF00BFC08E0924890ED020ADFED34
:10132000920A30EE600A80ED020A8E4890ED020AC1
:10133000DFED8D0AB4EEE00AF1EE10FAECDC08E025
:10134000884890ED020ADFED880A30EE200A80ED31
:10135000020A844890ED020AB5EEC00AF1EE10FAD6
:10136000EED3824890ED020ADFED810A80EE201A6A
:101370009FED7D0A21EE009A90ED020A9FED7C1A06
:10138000C0EE010A7B4890ED010A9FED771A00EE4E
:10139000C10A794880ED000A784890ED000A79EE9C
:1013A000409A9FED770AF4EEC09AF1EE10FA05D25A
:1013B00074480068401C734908600BE09FED720A96
:1013C000F4EEC09AF1EE10FA04DD6E480068401E9B
:1013D0006C4908606B4890ED000AF8EEC00A9FED7A
:1013E000621AB0EE490A00EE810A684880ED000AF0
:1013F000624880ED009A5F4890ED010A6348D0EDA5
:10140000000A70EE608A05E09FED570A38EEC00AC8
:10141000F0EE408A9FED5C0AF4EEC08AF1EE10FA1D
:10142000F2DCBDEEE80A10EE100A00B258498881DD
:101430004C4890ED020A38EEC00A4C48D0ED050A3F
:10144000544890ED001AB0EE408A01EE208A05E083
:101450009FED450A38EE000AB0EE408A9FED480A3B
:10146000B4EEC08AF1EE10FAF2D94948007CE0BB34
:10147000B2EE040AB4EEC08AF1EE10FA0AD2BAEE65
:10148000040AB4EEC08AF1EE10FA03DD9FED420AC1
:10149000B0EE408AB0EE480A404805F0EFFEB0EEEC
:1014A000408A3F4800783F49097888420CDBF0EEDB
:1014B000480A9FED390A3C4806F060F82D4880ED57
:1014C0000D0A0020364908702A4890ED031AF0EE04
:1014D000410A90ED0D1AB0EE410A3449344806F045
:1014E000FFF8244880ED0E0A00E00FE0D0ED0E0A70
:1014F000B0EE600A2F4805F0C1FE1E4880ED0E0ACE
:1015000027480078401C2649087026E02048007CC7
:10151000012822D1F0EE480A9FED1F0A264806F066
:101520002DF8144880ED0D0A90ED031AF0EE410AF3
:1015300090ED0D1AB0EE410A2049214806F0D0F88E
:101540000C4880ED0E0AD0ED0E0AB0EE600A1D4880
:1015500005F094FE074880ED0E0ABDEC048B10BD2B
:101560000C020020141E0020000000469C130020E6
:101570000000B443F81B0020B80000200402002043
:10158000000080C5100200200000804508020020F5
:10159000100F0020E001002000000000841D00204A
:1015A00034020020DC010020941C002044000020B4
:1015B000441C0020E41D0020341D00206400002095
:1015C000E41C0020B41D002010B5024801F08EFC80
:1015D00010BD0000480D002010B5024801F086FC47
:1015E00010BD0000A80D002010B5024801F07EFCDF
:1015F00010BD0000880C002010B5024801F076FCF8
:1016000010BD0000080E002010B5024801F06EFC6D
:1016100010BD0000E80C002001460878103818239F
:10162000B0FBF3F20848805CC865032A05D9086856
:101630006FF30900001D886503E008686FF3090077
:101640008865886D70470000F9190108014600207F
:101650008A6A8B69CBB932B1012A0DD0022A03D034
:10166000032A10D10EE000BFCB6A03F08073B3F100
:10167000807F00D1012007E0CB6AB3F1C07F00D1A9
:10168000012001E000E000BF34E08B69B3F5005FAA
:101690001AD132B1012A07D0022A03D0032A11D16C
:1016A0000AE000BF01200EE0CB6A03F08073B3F1C3
:1016B000807F00D1012006E0CB6AB3F1C07F00D16A
:1016C000012000E000BF15E032B1012A05D0022A56
:1016D00004D0032A0CD103E000BF00BF012008E0C2
:1016E000CB6A03F08073B3F1807F00D1012000E06A
:1016F00000BF00BF704730B50468246824F480241C
:1017000005682C60046863608468402C04D1046818
:10171000A2600468E16003E00468A1600468E2601C
:1017200030BD000070B58AB004460D460294002119
:10173000049105910821069100218DF81C10FF20CD
:101740008DF82000FF2101A841778177C1778DF8BE
:1017500024108DF825108DF82610FC218DF8271007
:1017600008A80090044823460022294646680348FA
:101770000068B0470AB070BDF000002008000020EB
:1017800080ED0E0AC0ED0C0A80ED0D1AFDEEE12A87
:1017900012EE901A49B280F84410FDEEC22A12EE01
:1017A000901A49B280F84510704790ED020ABCEEDD
:1017B000C00A10EE101A818490ED020A80ED100A22
:1017C00000218187704730B58BB004460D460394E5
:1017D00000210591069108210791002102A80176B8
:1017E000FF208DF82400FF2102A841778177C1777F
:1017F0008DF828108DF829108DF82A10FE218DF80B
:101800002B1001AB09AA03A9284600F09EFD0BB0DE
:1018100030BD00000FB42DED040B70B52DED068B1F
:10182000B0EE408AB0EE609AF0EE419A179D9DF8B6
:10183000540000F00F0441F2D600854202D10E9808
:10184000441E05E041F27670854201D10E98041FD6
:10185000F0EE488AB0EE49AAF0EE69AAF54850F8D1
:10186000240090ED020ABCEEC00A10EE100AF14905
:1018700051F8241088849DF854000011ED4951F866
:10188000241008800EA8817F407F41EA002000EEEE
:10189000100AB8EE400AE74850F8240080ED070A25
:1018A000E44850F8240090ED070A10EE101A08469C
:1018B0000FF01AFBE04A03C20EA8C07F01019DF899
:1018C000580041EA201000EE100AB8EE400AD9484C
:1018D00050F8240080ED080A9DF858009DF8591032
:1018E00000EE101AB8EE400AD24850F8240080EDFD
:1018F000050AD04951F8241091ED070ABDEEC00A3F
:1019000010EE100A1021F0EE680AB1EE680A0DF030
:10191000F3F8C84850F8240080ED020ABDEEE80A4A
:10192000C64880ED000AC34850F8240090ED020A32
:10193000BDEEC00AC24880ED000ABE4850F824003F
:1019400090ED020ADFEDBF0A60EE200A80EEA80AE1
:10195000DFEDBC0A30EE200AB64850F8240080EDD6
:10196000020AB44850F8240090ED020ABDEEC00A05
:10197000B54880ED000AAF4951F8241091ED080AEE
:10198000BDEEC00A10EE100A0C21F0EE4A0AB1EECC
:101990004A0A0DF0B1F8A74850F8240080ED030A78
:1019A000A44951F8241091ED050ABDEEC00A10EECD
:1019B000100A0C21F0EE6A0AB1EE6A0A0DF09CF8EA
:1019C0009C4850F8240080ED060A9DF85A0000EE6D
:1019D000100AB8EE400ABCEEC00A10EE100A954993
:1019E00051F8241008749DF85B0000EE100AB8EE60
:1019F000400ABCEEC00A10EE100A8E4951F82410BD
:101A000048748C4850F8240090ED020ABDEEC00ADC
:101A10008E4880ED000A41F2767085427ED185487D
:101A200050F82400D0ED020A824850F82400808C3F
:101A300000EE100AB8EE400A30EEC00ADFED840A6C
:101A4000B4EEE00AF1EE10FA09D27A4850F8240018
:101A5000C08F401C00B2774951F82410C8877548E0
:101A600050F82400808C00EE100AB8EE400A71484D
:101A700050F82400D0ED020A30EE600ADFED740A5F
:101A8000B4EEE00AF1EE10FA09D26A4850F82400E8
:101A9000C08F401E00B2674951F82410C8876548BE
:101AA00050F82400D0ED020A624850F82400B0F942
:101AB0003E00400300EE100AB8EEC00A30EE800A85
:101AC0005C4850F8240080ED100A5A4951F824105F
:101AD00091ED100ABDEEC00A10EE101A08B2C1173F
:101AE00000EBD1414913A0EB413100EE101AB8EEE2
:101AF000C00A504951F8241081ED010A4D4850F8B0
:101B0000240090ED010ABDEEC00A524880ED000AA3
:101B1000484850F8240090ED010A00E01DE0B5EEC1
:101B2000C00AF1EE10FA0DD2424850F8240090EDB0
:101B3000010ADFED490A30EE200A3E4850F8240041
:101B400080ED010A3B4850F8240090ED010ABDEEFB
:101B5000C00A424880ED000A55E0364850F824009B
:101B6000D0ED020A334850F82400808C00EE100AB1
:101B7000B8EE400A30EEC00ADFED350AB4EEE00AF6
:101B8000F1EE10FA09D22B4850F82400808F401C47
:101B900000B2284951F824108887264850F82400BC
:101BA000808C00EE100AB8EE400A224850F824005B
:101BB000D0ED020A30EE600ADFED250AB4EEE00A4D
:101BC000F1EE10FA09D21B4850F82400808F401E15
:101BD00000B2184951F824108887164850F824009C
:101BE000D0ED020A134850F82400B0F93C0040033D
:101BF00000EE100AB8EEC00A30EE800A0D4850F828
:101C0000240080ED100A0B4850F82400B0F848007A
:101C1000401C084951F82410A1F84800012005494A
:101C200051F8241081F84600BDEC068B70BC5DF8BD
:101C300024FB00007001002098010020B00100206A
:101C4000BC01002000008045B4010020A00100205C
:101C5000000080C5B801002000000046A40100205B
:101C60002DE9F0472DED0C8BF0EE409AB0EE60AA16
:101C7000F0EE41AAB0EE61BAF0EE42BAB0EE628A7E
:101C8000F0EE438AB0EE639A0446DFED310A89EE46
:101C9000A00AF0EE000A20EE200ADFED2E0A20EE68
:101CA000200AF0EE40DAB0EE48CAF0EE68CAB0EEB4
:101CB00049DA1020B0EE4C1AF1EE4C0AB0EE6D0A83
:101CC0000BF0A4FA85B20C20B0EE6C1AF1EE6C0A9F
:101CD000B0EE4A0A0BF09AFA86B20C20B0EE4D1A1A
:101CE000F1EE4D0AB0EE6B0A0BF090FA87B20C20C1
:101CF0009FED191ADFED190AB0EE6A0A0BF086FAA9
:101D00001FFA80F80C20B1EE041ADFED140AB0EED1
:101D10004B0A0BF07BFA1FFA80F9281220706570CD
:101D2000C6F30710A0703007000E40EA2820E070CC
:101D300084F80480C9F3071060714FEA0970000E3F
:101D400040EA2720A071E771BDEC0C8BBDE8F0875D
:101D500000000046DA0F49400000FA43000000008E
:101D6000C162704710B52DED0A8B0020A1490870A3
:101D7000A1480078A049497840EA0120C0F30A0050
:101D80009E49088008460088A0F5806000B208805F
:101D900099484078C0109849897840EA4110C0F3CA
:101DA0000A009649488008464088A0F5806000B245
:101DB00048809148807880118F49C97840EA810035
:101DC0008D49097940EA8120C0F30A008B49888057
:101DD00008468088A0F5806000B288808648007937
:101DE00040108549497940EAC110C0F30A0083498F
:101DF000C8800846C088A0F5806000B2C880084648
:101E0000B0F90000962807DC0846B0F9000010F190
:101E1000960F01DB002008807848B0F90200052801
:101E200008DC7648B0F9020010F1050F02DB002053
:101E3000724948807148B0F90400052808DC6F48F1
:101E4000B0F9040010F1050F02DB00206B49888017
:101E50006A48B0F90600052808DC6848B0F90600B1
:101E600010F1050F02DB00206449C8806248407908
:101E700000118008614908725F484079C0F3011081
:101E800048725D4880795C49C97940EA012000B216
:101E90005A4948815848007A5749497A40EA01200E
:101EA00001B2564881815448807A5349C97A40EA40
:101EB000012001B25148C1814F48017B4F48017454
:101EC0004D48417B4D4841744B48807B4A49C97B12
:101ED00040EA0120494948824748007C4649497CFC
:101EE00040EA0120A0F5806000B24449888208469B
:101EF000B0F9140010F5257F05DB0846B0F9140091
:101F0000B0F5257F02DD00203C4988823B48007AFD
:101F100003285AD13948B0F9060000EE100AB8EE8D
:101F2000C00A374880ED000A3448B0F90400404246
:101F300000EE100AB8EEC00A314880ED010A2F48C1
:101F4000B0F914004042642190FBF1F000EE100A59
:101F5000B8EEC00A2A4880ED020A2849B1F90010FB
:101F600048420EF0E8FB41EC1C0B9FED260B53ECB6
:101F7000102B0EF047FC41EC1B0B9FED240B53EC98
:101F8000102B0EF03FFC41EC190B224890ED020A99
:101F900010EE101A08460EF02BFF41EC1A0B53EC12
:101FA000192B0EF049F941EC180B0EF013F91949F1
:101FB00088601248407A022803D10120164908603F
:101FC00010E00020144908600CE09FED140A0C4852
:101FD00080ED000A9FED110A80ED010A9FED0F0AC6
:101FE00080ED020A122204490D4803F0D2FCBDEC38
:101FF0000A8B10BD40010020CA130020B41300203A
:10200000381E0020FCA9F1D24D62403F00000000C4
:1020100000003940141E002048010020000000008C
:10202000F80B002010B512220249034803F0B1FC5E
:1020300010BD0000CA130020F80B0020704710B537
:10204000012001F049F910BD72B600BFFEE70000A3
:1020500010B52DED028B8EB00446B0EE408AF0EE46
:10206000608A00200C900D900A900B9008900990C7
:1020700006900790049005900CA9F0EE680AB0EE67
:10208000480A204604F00CFADDED0C0AB0EE600AB6
:102090000AA908A804F0EAFFDDED0D0AB0EE600A17
:1020A00006A904A804F0E2FF0A98C0EBC000754935
:1020B00001EB8000069900EB810090ED000ADDED58
:1020C000040A20EE200A0A98C0EBC0006D4901EB1B
:1020D0008000079900EB8100D0ED000A9DED051A04
:1020E00001EE200ADDED080A20EE200A0B98C0EB75
:1020F000C000644901EB8000069900EB8100D0ED3F
:10210000000A9DED041A60EE810A0B98C0EBC00036
:102110005C4901EB8000079900EB810090ED001A0B
:10212000DDED051A41EE810A9DED091A01EE200A46
:102130008DED010A0A98C0EBC000534901EB800005
:10214000069900EB810090ED000ADDED040A20EE17
:10215000200A0A98C0EBC0004B4901EB80000799A8
:1021600000EB8100D0ED000A9DED051A01EE200A7A
:10217000DDED080A20EE200A0B98C0EBC0004249B2
:1021800001EB8000069900EB8100D0ED000A9DED87
:10219000041A60EE810A0B98C0EBC0003A4901EBCB
:1021A0008000079900EB810090ED001ADDED051A23
:1021B00041EE810A9DED091A01EE200A8DED020A19
:1021C0000A98C0EBC000314901EB8000069900EB92
:1021D000810090ED000ADDED040A20EE200A0A9845
:1021E000C0EBC000294901EB8000079900EB81009A
:1021F000D0ED000A9DED051A01EE200ADDED080A7A
:1022000020EE200A0B98C0EBC000204901EB8000B3
:10221000069900EB8100D0ED000A9DED041A60EEF6
:10222000810A0B98C0EBC000184901EB80000799A8
:1022300000EB810090ED001ADDED051A41EE810AF8
:102240009DED091A01EE200A8DED030A94ED050AB1
:10225000DDED010A20EE200A84ED000A94ED060A65
:10226000DDED020A20EE200A84ED010A94ED070A52
:10227000DDED030A20EE200A84ED020A0EB0BDEC6B
:10228000028B10BD94140108581501081C16010892
:1022900030B5034613B94FF6FF7030BD09E013F8AF
:1022A000014B82EA0400C0B2054D35F8100080EA07
:1022B0002222081EA1F10101F1D11046EDE7000034
:1022C000E017010830B5034605E013F8010B80EA7A
:1022D00002040448025D081EA1F10101F5D1104677
:1022E00030BD0000E016010870B50B480168001D04
:1022F0000568001D0068084400280CD0074C08221F
:10230000A11C03F02BFF04F112012846BDE8704028
:10231000042203F023BF70BD107AFF1FAC0200201F
:1023200010B5024692F82030012B01D0022B06D1C5
:1023300010684069084314686061002010BD506A4D
:1023400040F4802050620120F8E7F0B504460D46C5
:102350001E4694F8207020688368A86800B900E0E1
:1023600000BF012F01D0022F7DD103F0806030B972
:1023700003F0006018B903F0805000287ED0C3F34A
:102380000161012088403060A86860B9B5F800C0DC
:10239000E86840EA4C5C206800F5C07000EB011072
:1023A000C0F800C00FE0D5E901C040EACC00D5F884
:1023B0000CC040EA0C00D4F800C00CF5C07C0CEB5B
:1023C000011CCCF80000D5F810C0206800F5C070E2
:1023D00000EB0110C0F804C0287D01280ED1206850
:1023E00000F5C07000EB0110406840F4807C20686C
:1023F00000F5C07000EB0110C0F804C0D0790006F1
:1024000092F806C040EA0C4092F805C040EA0C2061
:1024100092F804C040EA0C00D4F800C00CF5C07C6F
:102420000CEB011CCCF80C00D078000692F802C02E
:1024300040EA0C4092F801C040EA0C2092F800C03B
:1024400040EA0C00D4F800C00CF5C07C0CEB011C79
:10245000CCF80800206800F5C07000EB011000689F
:1024600040F0010C01E00FE008E0206800F5C070CA
:1024700000EB0110C0F800C00020F0BD606A40F41D
:10248000001060620120F8E7606A40F4802060621A
:102490000120F2E7F0B504460A46216894F820507E
:1024A000012D01D0022D7ED1424901F5007108684D
:1024B00040F001000860086820F47C50086008685B
:1024C000566A40EA06200860107D00F01F060120D1
:1024D00000FA06F3C8699843C861A1F50071D06994
:1024E000C8B9D1F80C029843C1F80C02908880B2A8
:1024F000968940EA064601F51070576940F8376042
:10250000108880B2168940EA064601F510705769B6
:1025100000EBC7004660D069012819D1D1F80C0240
:102520001843C1F80C02908880B2168840EA06462B
:1025300001F51070576940F83760908980B21689AC
:1025400040EA064601F51070576900EBC700466087
:10255000906928B9D1F804029843C1F8040204E054
:10256000D1F804021843C1F80402106928B9D1F85F
:1025700014029843C1F8140204E0D1F8140218437D
:10258000C1F81402106A012804D1D1F81C021843C2
:10259000C1F81C02D1F8000220F00100C1F80002CD
:1025A0000020F0BDFFE7606A40F4802060620120F7
:1025B000F7E7000000640040704770B5044694F8E7
:1025C0002050012D01D0022D7DD151B92068C06865
:1025D00000F0030080B9606A40F4001060620120DE
:1025E00070BD2068006900F0030028B9606A40F4FB
:1025F000001060620120F3E7206800F5D87000EB5E
:102600000110006800F004009060906840B92068F4
:1026100000F5D87000EB01100068400D106007E075
:10262000206800F5D87000EB01100068C008506009
:10263000206800F5D87000EB0110006800F002007F
:10264000D060206800F5D87000EB0110406800F001
:102650000F00082802D30820106108E0206800F568
:10266000D87000EB0110406800F00F001061206886
:1026700000F5D87000EB0110406800F47F40000ABC
:102680009061206800F5D87000EB01104068000CE4
:102690005061206800F5D87000EB01108068187058
:1026A000206800F5D87000EB0110806800F47F40CE
:1026B000000A5870206800F5D87000EB011080689F
:1026C00000F47F0000E03CE0000C9870206800F50A
:1026D000D87000EB01108068000ED870206800F5FB
:1026E000D87000EB0110C0681871206800F5D87030
:1026F00000EB0110C06800F47F40000A58712068A8
:1027000000F5D87000EB0110C06800F47F00000CE9
:102710009871206800F5D87000EB0110C068000EB9
:10272000D87131B92068C06840F020002668F06098
:1027300005E02068006940F0200026683061002034
:102740004EE7606A40F480206062012048E72DE98E
:10275000F05F04460025206846692068D0F80490A0
:10276000206887682068D0F80CA02068D0F810B0E6
:102770002068D0F8188006F00100002855D007F036
:102780000100C0B101202168886007F0020018B183
:10279000204600F03AFB0EE007F0040010B145F4CB
:1027A000006508E007F0080010B145F4805502E02C
:1027B000204600F029FB07F48070C8B14FF4807008
:1027C0002168886007F4007018B1204600F01FFBF4
:1027D0000EE007F4806010B145F4005508E007F4FE
:1027E000006010B145F4804502E0204600F00EFB89
:1027F00007F48030C8B14FF480302168886007F456
:10280000003018B1204600F004FB0EE007F48020F1
:1028100010B145F4004508E007F4002010B145F47C
:10282000803502E0204600F0F3FA06F0080038B1E7
:102830000AF0100020B145F4007510202168C8602E
:1028400006F0040040B10AF0080028B10820216811
:10285000C860204600F01CFA06F0020038B120687B
:10286000C06800F0030010B1204600F013FA06F033
:10287000400038B10BF0100020B145F48065102005
:102880002168086106F0200040B10BF0080028B173
:10289000082021680861204600F084FA06F0100044
:1028A00038B12068006900F0030010B1204600F044
:1028B0007AFA06F4003040B109F0100028B1102077
:1028C00021684860204600F06FFA06F4803040B17D
:1028D00009F0080028B1082021684860204600F06F
:1028E00099FA06F4004088B309F0040078B306F4BE
:1028F000807020B108F0010008B145F0010506F430
:10290000007020B108F0020008B145F0020506F49D
:10291000806020B108F0040008B145F0040506F419
:102920000060A0B108F0700088B108F07000402885
:1029300017D006DC10280BD020280CD0302819D155
:102940000CE0502810D0602814D110E01DE019E0F0
:1029500045F008050FE045F010050CE045F02005B6
:1029600009E045F0400506E045F0800503E045F448
:10297000807500E000BF00BF2068806920F0700013
:10298000216888610420216848602DB1606A28436D
:1029900060622046FFF710FEBDE8F09F70B5044668
:1029A0000CB9012070BD94F8200010B9204600F049
:1029B000AFF82068006840F001002168086000F06E
:1029C00099FD05460DE000F095FD401B0A2808D949
:1029D000606A40F400306062052084F82000012025
:1029E000E0E72068406800F001000028EBD0206894
:1029F000006820F002002168086000F07BFD0546B9
:102A00000DE000F077FD401B0A2808D9606A40F409
:102A100000306062052084F820000120C2E72068B1
:102A2000406800F002000028EBD1207E012806D18A
:102A30002068006840F080002168086005E0206898
:102A4000006820F0800021680860607E012806D1BF
:102A50002068006840F040002168086005E02068B8
:102A6000006820F0400021680860A07E012806D19F
:102A70002068006840F020002168086005E02068B8
:102A8000006820F0200021680860E07E012806D15F
:102A90002068006820F010002168086005E02068C8
:102AA000006840F0100021680860207F012806D1EE
:102AB0002068006840F008002168086005E0206890
:102AC000006820F0080021680860607F012806D1B6
:102AD0002068006840F004002168086005E0206874
:102AE000006820F0040021680860D4E9020108436E
:102AF00021690843616908436168491E08432168E8
:102B0000C86100206062012084F82000002049E7AD
:102B100010B586B00446142101A8FDF713FD5649EF
:102B20002068884249D155480068401C53490860D4
:102B30000846006801280FD100BF002000905048CF
:102B4000006840F000704E4908600846006800F0D8
:102B50000070009000BF00BF00BF002000904848F8
:102B60001038006840F008004549103908600846F0
:102B7000006800F00800009000BF00BF0320019033
:102B80000220029000200390032004900920059069
:102B900001A93C4800F0AEFB00220521132000F003
:102BA00067FD132000F050FD00220521142000F0E5
:102BB0005FFD142000F048FD5CE033492068884246
:102BC00058D100BF002000902D48006840F0806080
:102BD0002B4908600846006800F08060009000BF44
:102BE00000BF26480068401C244908600846006869
:102BF00001280FD100BF002000902148006840F05C
:102C000000701F4908600846006800F000700090DE
:102C100000BF00BF00BF00200090194810380068B6
:102C200040F002001649103908600846006800F0BC
:102C30000200009000BF00BF6020019002200290BF
:102C400000200390032004900920059001A90F485B
:102C500000F050FB002205213F2000F009FD3F203D
:102C600000F0F2FC00220521402000F001FD402090
:102C700000F0EAFC06B010BD0064004040000020F7
:102C800040380240000C024000680040000402404E
:102C90007047000038B504463B492068884203D19C
:102CA00000203A49087002E001203849087037488E
:102CB000007800EB400101EB0010354901EB80008A
:102CC00000F144033148007800EB400101EB0010B3
:102CD0002F4901EB800000F1280200212046FFF778
:102CE0006CFC2A4A127802EB420303EB0212284BD7
:102CF00003EB820202F12801244A127802EBC2029D
:102D0000244B03EB82001C22FDF7EAFB1F480078EE
:102D100000EBC0001F4901EB80011C48007800EB6C
:102D2000400202EB00101A4A02EB8000826C406CF9
:102D3000C1E907021548007868B91448007800EB2B
:102D4000C000144A02EB800100236A461248006862
:102D50000CF0C2FD0CE00D48007800EBC0000D4AFD
:102D600002EB800100236A460C4800680CF0B4FDB9
:102D7000009838B14FF0805009490860BFF34F8F79
:102D8000BFF36F8F38BD00000064004028010020B1
:102D9000D811002070120020000000200400002044
:102DA00004ED00E070477047704770B5044694F832
:102DB0002000012822D1022084F820002068006829
:102DC00020F001002168086000F094FB05460DE04A
:102DD00000F090FB401B0A2808D9606A40F40030DC
:102DE0006062052084F82000012070BD20684068E2
:102DF00000F001000028EBD16062F6E7606A40F461
:102E0000002060620120F0E770477047704770470C
:102E100070477047704770B50446A56D00F06AFBB7
:102E2000064694F83500022808D08020606500BF6F
:102E3000002084F8340000BF012070BD20680068C5
:102E400020F01600216808602068406920F08000AA
:102E500021684861206C08B9A06C28B1206800681E
:102E600020F00800216808602068006820F0010058
:102E70002168086010E000F03DFB801B05280BD99D
:102E800020206065032084F8350000BF002084F80E
:102E9000340000BF0320D0E72068006800F0010084
:102EA0000028E8D194F85C103F208840A8600120F9
:102EB00084F8350000BF002084F8340000BF00BF54
:102EC000BBE7014691F83500022803D08020486511
:102ED00001207047052081F835000868006820F05F
:102EE00001000A6810600020F3E70000F8B504460E
:102EF000002000908C4800684FF41651B0FBF1F7A9
:102F0000A56D2E6894F85C1008208840304098B178
:102F10002068006800F0040070B12068006820F0AC
:102F200004002168086094F85C1008208840A860BC
:102F3000606D40F00100606594F85C1001208840ED
:102F4000304068B12068406900F0800040B194F8DA
:102F50005C1001208840A860606D40F00200606550
:102F600094F85C1004208840304068B12068006804
:102F700000F0020040B194F85C1004208840A86082
:102F8000606D40F00400606594F85C10102088408B
:102F9000304078B32068006800F0080050B394F81F
:102FA0005C1010208840A8602068006800F4802031
:102FB00080B12068006800F4002028B9206CC8B1F6
:102FC0002046216C884715E0A06C98B12046A16C82
:102FD00088470FE02068006800F4807028B92068F6
:102FE000006820F0080021680860206C10B12046BD
:102FF000216C884794F85C102020884030400028DD
:1030000065D02068006800F0100000285FD094F8B8
:103010005C1020208840A86094F83500052828D14D
:103020002068006820F01600216808602068406968
:1030300020F0800021684861206C08B9A06C28B19C
:103040002068006820F008002168086094F85C108F
:103050003F208840A860012084F8350000BF002090
:1030600084F8340000BF206D10B12046216D8847E0
:10307000F8BD2068006800F4802080B120680068F6
:1030800000F4002028B9606C10B12046616C8847BC
:103090001DE0E06BD8B12046E16B884717E020685F
:1030A000006800F4807068B92068006820F01000A3
:1030B00021680860012084F8350000BF002084F8F2
:1030C000340000BFE06B10B12046E16B8847606DB3
:1030D00038B3606D00F00100F0B1052084F83500D0
:1030E0002068006820F001002168086000BF009897
:1030F000401C0090B84200D905E02068006800F04C
:1031000001000028F3D100BF012084F8350000BF82
:10311000002084F8340000BFE06C10B12046E16C60
:10312000884700BFA4E70000DC0200202DE9F04141
:103130000446002500F0DEF9074614B90120BDE879
:10314000F081606A00B100BF022084F8350000BF42
:10315000002084F8340000BF2068006820F00100DF
:10316000216808600AE000F0C5F9C01B052805D9F0
:1031700020206065032084F83500E0E720680068BF
:1031800000F001000028EED12068056821480540C4
:10319000D4E901010843E1680843216908436169F2
:1031A0000843A1690843E1690843216A08430543CC
:1031B000606A042803D1D4E90B0108430543206861
:1031C00005602068456925F00705606A0543606A67
:1031D00004280DD1A06A0543E06A48B12046FEF7F5
:1031E00035FA28B140206065012084F83500A6E753
:1031F000206845612046FEF70FFA064694F85C10F9
:103200003F208840B06000206065012084F83500D0
:10321000002094E73F8010F02DE9F04704460D466A
:1032200016461F464FF00008D4F8589000BF94F897
:103230003400012802D10220BDE8F087012084F883
:10324000340000BF94F83500012825D1022084F80D
:103250003500002060653B46324629462046FEF791
:103260004AFA94F85C103F208840C9F808002068AA
:10327000006840F0160021680860206C28B12068C2
:10328000006840F00800216808602068006840F08D
:1032900001002168086006E000BF002084F83400C7
:1032A00000BF4FF002084046C6E7000070B5044674
:1032B00000F020F906462546681C10B10448007845
:1032C000054400BF00F016F9801BA842FAD370BD78
:1032D000E80200207047000010B50446044800686A
:1032E000204020B1024804602046FFF7F3FF10BDE4
:1032F000143C0140F8B502460B460025002400208E
:103300000021D6E0012606FA01F51E6806EA05044A
:10331000AC4274D11E7906F00306012E04D01E794A
:1033200006F00306022E13D190684F000326BE401C
:10333000B0434F00DE68BE403043906050680126C5
:103340008E40B0431E79C6F300168E403043506065
:103350001E7906F00306032E09D0D0684F0003261D
:10336000BE40B0434F009E68BE403043D0601E79DF
:1033700006F00306022E13D1CF0802F1200656F8FC
:1033800027004E07F70E0F26BE40B0434F07FF0E33
:103390001E69BE403043CF0802F1200646F82700E0
:1033A00010684F000326BE40B0431E7906F00306A6
:1033B0004F00BE40304310605E6806F44036002E79
:1033C00076D000BF002600963C4E366846F4804614
:1033D0003A4F3E603E46366806F48046009600BF8F
:1033E00000BF374E8F0856F827008E07370F0F267D
:1033F000BE40B043334EB24202D1002624E057E033
:10340000314EB24201D101261EE0304EB24201D10E
:10341000022619E02E4EB24201D1032614E02D4EB1
:10342000B24201D104260FE02B4EB24201D1052653
:103430000AE02A4EB24201D1062605E0284EB242E9
:1034400001D1072600E008268F073F0FBE4030431A
:103450001B4E8F0846F82700224E3068A0435E6856
:1034600006F4801606B120431E4E3060361D3068CB
:10347000A0435E6806F4001606B12043194E361DBF
:103480003060184E361F3068A0435E6806F4003680
:1034900006B12043134E361F3060361F3068A043FC
:1034A0005E6806F4803606B120430E4E083E30605A
:1034B000491C1029FFF426AFF8BD00004438024033
:1034C00008380140000002400004024000080240A9
:1034D000000C02400010024000140240001802409C
:1034E000001C0240083C01400AB1816101E00B046C
:1034F000836170470148006870470000E0020020C7
:103500000348006803490978084401490860704786
:10351000E0020020E802002010B50D48006840F4E9
:1035200000700B4908600846006840F4806008603D
:103530000846006840F480700860032000F0D6F868
:10354000052000F007F800F055F8002010BD00003D
:10355000003C0240F0B587B004460026002700BFBB
:10356000002000901E48006840F001001C490860DF
:103570000846006800F00100009000BF00BF01A9EC
:1035800002A801F0EFF801F025F946001548B6FB56
:10359000F0F0471E14481549086040F2E73113481F
:1035A000C1604760002101618160816101F036FEE8
:1035B000054695B90D4801F0CDFE05466DB91920B7
:1035C00000F042F8102C07D200222146192000F00A
:1035D0004FF80748046000E00125284607B0F0BD19
:1035E0004438024040420F0000000140680E0020B5
:1035F000E402002008B500BF0020009011480068D8
:1036000040F480400F4908600846006800F480409C
:10361000009000BF00BF00BF00200090081F00689E
:1036200040F08050091F08600846006800F0805094
:10363000009000BF00BF00220F21901E00F018F87C
:1036400008BD0000443802400146084600280DDB52
:1036500000BF00BF00F01F0301229A4043099B00F6
:1036600003F1E023C3F8002100BF00BF00BF704793
:103670002DE9F05F80460D461646002707F0B6FBA1
:10368000074639462A46334601F00700C0F1070ACB
:10369000BAF1040F02D94FF0040A01E0C0F1070AA1
:1036A000D14600F1040ABAF1070F02D24FF0000A26
:1036B00001E0A0F1030AD4464FF0010A0AFA09FA20
:1036C000AAF1010A0AEA020A0AFA0CFA4FF0010BFF
:1036D0000BFA0CFBABF1010B0BEA030B4AEA0B04F0
:1036E0002146404607F08AFBBDE8F09F00BF00F08E
:1036F0000702064B19684FF6FF031940044B0B43B2
:1037000043EA0221014B196000BF70470CED00E055
:103710000000FA05704702461068416200207047B9
:10372000F0B5034615461868446A21B944EA0540D5
:103730001E68B06219E01868806A04EB1044002229
:1037400008E0186800F5827050F8220004EB10447D
:10375000501CC2B2481E9042F3D844EA054718688C
:1037600000F582704E1E40F826700020F0BDD0F8A3
:10377000E00405F0C1BE01EBC10200EB8202D0F80B
:10378000E004126A05F0E2BD01EBC10200EB820227
:10379000D0F8E004D2F8602205F046BED0F8E0048C
:1037A00005F0ACBE2DE9F04104460D4605F0800061
:1037B000802808D105F00F0000EBC00104F11400CF
:1037C00000EB810607E005F00F0000EBC00104F5F7
:1037D000157000EB81063146206806F0BBFF0746F6
:1037E0003846BDE8F08170B504460E4606F080000C
:1037F00080280AD106F00F0000EBC00104F114008C
:1038000000EB81050120687009E006F00F0000EB75
:10381000C00104F5157000EB81050020687006F00A
:103820000F00287000BF94F89404012801D10220F1
:1038300070BD012084F8940400BF2946206806F07A
:1038400017FB00BF002084F8940400BF00BFEFE71F
:1038500070B504460E4606F00F002179884201D962
:10386000012070BD06F0800080280AD106F00F000C
:1038700000EBC00104F1140000EB81050120687029
:1038800009E006F00F0000EBC00104F5157000EB35
:103890008105002068700020A87006F00F002870D5
:1038A00000BF94F89404012801D10220D9E7012037
:1038B00084F8940400BF2946206806F0D7FC00BFB6
:1038C000002084F8940400BF00BFCAE7024601F05C
:1038D0000F0000EBC00302F5157000EB8300406998
:1038E00070472DE9F04705460E4690461F464FF0BB
:1038F000000906F0800080280AD106F00F0000EBD6
:10390000C00105F1140000EB81040120607009E0A2
:1039100006F00F0000EBC00105F5157000EB810407
:103920000020607006F00F002070C8F30A00A0604D
:103930002771607808B120786083022F01D10020C0
:10394000607100BF95F89404012802D10220BDE8FF
:10395000F087012085F8940400BF2146286806F00E
:103960009BF900BF002085F8940400BF4846EEE7AD
:103970002DE9F04105460E461746984606F00F0021
:1039800000EBC00105F5157000EB8104E760C4F899
:10399000108000206061607006F00F002070A87930
:1039A000012800D1E761AA792146286806F0F2FCD7
:1039B0000020BDE8F08170B504460D4605F00F000B
:1039C0002179884201D9012070BD05F0800080284E
:1039D0000AD105F00F0000EBC00104F1140000EB68
:1039E00081060120707007E005EBC50104F5157034
:1039F00000EB8106002070700120B07005F00F0010
:103A0000307000BF94F89404012801D10220DBE754
:103A1000012084F8940400BF3146206806F06DFC54
:103A200005F00F0028B9A17904F29C42206806F045
:103A3000E5FB00BF002084F8940400BF00BFC3E78B
:103A40002DE9F04105460E461746984606F00F0050
:103A500000EBC00105F1140000EB8104E760C4F83D
:103A60001080002060610120607006F00F0020705F
:103A7000A879012800D1E761AA792146286806F0D3
:103A800089FC0020BDE8F0812DE9FE4F0446D4F802
:103A900000B05E46206806F03FFF002874D1206821
:103AA00006F079FF08B9BDE8FE8F40F6080080599E
:103AB000C0F30D20C4F8D404206806F06CFF00F0B9
:103AC0000200022805D12068406900F00200216848
:103AD0004861206806F05FFF00F01000102845D113
:103AE0002068806920F0100021688861DBF8209050
:103AF00009F00F0000EBC00104F5157000EB810A1E
:103B0000C9F3434002281AD147F6F07009EA0000D1
:103B100030B3C9F30A125846DAF80C1006F040FF29
:103B2000C9F30A11DAF80C000844CAF80C00C9F30A
:103B30000A11DAF814000844CAF8140010E0C9F3B6
:103B4000434006280CD1082204F29C41584606F056
:103B500027FFC9F30A11DAF814000844CAF8140060
:103B60002068806940F0100021688861206806F0B4
:103B700012FF00F40020B0F5002F7BD10025206853
:103B800006F0D9FE029072E0E1E2029800F0010036
:103B9000002868D0E9B2206806F0F0FE804608F000
:103BA000010048B1012106F5306000EB451081604D
:103BB0002946204603F0D8FB08F00800082809D160
:103BC000082106F5306000EB45108160294620464B
:103BD00003F098FB08F01000102805D1102106F51D
:103BE000306000EB4510816008F00200022824D10B
:103BF000DBF8140000F08000802807D140F60400B4
:103C0000805940F4806140F60400815105EBC50104
:103C100004F5157000EB810A9AF80300012806D11B
:103C200000208AF80300E9B2204600F096FA02214B
:103C300006F5306000EB4510816008F02000202878
:103C400005D1202106F5306000EB4510816008F4B5
:103C50000050B0F5005F06D14FF4005106F530601A
:103C600000EB451081606D1C02984008029002989C
:103C700000288AD1206806F08EFE00F48020B0F57E
:103C8000802F7DD1206806F04CFE029000259AE03E
:103C9000029800F00100002873D0E9B2206806F015
:103CA00054FE804608F00100F0B305F00F0101203A
:103CB0008840019040F634008159019821EA0000C3
:103CC00040F634018851012106F5106000EB4510E3
:103CD0008160A079012824D105EBC50104F114000D
:103CE00000EB810005EBC502C16804F1140000EB94
:103CF00082008068014405EBC50204F1140000EB6A
:103D00008200C1606DB905EBC50104F1140000EB40
:103D10008100006928B904F29C420121206806F064
:103D20006DFAE9B2204600E001E0FFF724FD08F05B
:103D30000800082805D1082106F5106000EB4510A1
:103D4000816008F01000102805D1102106F51060E0
:103D500000EB4510816008F04000402805D140216B
:103D600006F5106000EB4510816008F002000228A3
:103D70001DD12946584606F092FD05EBC50101E02C
:103D800025E01CE004F1140000EB810A9AF803001E
:103D9000012806D100208AF80300E9B2204600F08D
:103DA000D8F9022106F5106000EB4510816008F09B
:103DB0008000802803D12946204603F077FB6D1C44
:103DC000029840080290029800287FF461AF2068B2
:103DD00006F0E1FD00F00040B0F1004F1CD140F6CC
:103DE0000400805920F0010140F60400815194F84C
:103DF000CC04012807D1002084F8CC0400212046FF
:103E0000FFF788FC02E0204600F0B3FA2068406922
:103E100000F0004021684861206806F0BCFD00F415
:103E20000060B0F5006F0ED140F60800805900F038
:103E3000010010B1204600F0EBFA2068406900F460
:103E4000006021684861206806F0A5FD00F48050FC
:103E5000B0F5805F7ED140F60400805920F001016A
:103E600040F6040081511021206806F018FD00275B
:103E700032E04FF67F3106F5106000EB47108160AD
:103E800006F5106000EB4710006820F4001106F5FD
:103E9000106000EB471001604FF67F3106F530608F
:103EA00000EB4710816006F5306000EB47100068BA
:103EB00020F4001106F5306000EB4710016006F5B4
:103EC000306000EB4710006840F0006106F530609C
:103ED00000EB471001607F1C2079B842C9D840F63A
:103EE0001C00805940F0011140F61C008151E07B1C
:103EF00070B1D6F8840840F00B01C6F8841840F67B
:103F00004400805940F00B0140F6440081510FE01D
:103F100040F61400805942F22B01084340F6140188
:103F20008851081F805940F00B014FF40160815106
:103F3000D6F8000820F4FE60C6F80008A17904F263
:103F40009C42206806F05AF92068406900F48050CD
:103F5000216800E000E04861206806F01CFD00F4E4
:103F60000050B0F5005F17D1206805F0FDFE206815
:103F700006F0BFFCE07100F017FC0090E2792068C9
:103F8000009906F08FFD204600F0DCF920684069BA
:103F900000F4005021684861206806F0FCFC00F045
:103FA0000800082808D1204600F0E7F92068406999
:103FB00000F0080021684861206806F0ECFC00F081
:103FC0008000802818D1DBF8180020F08000CBF8A2
:103FD000180001250DE005EBC50104F5157000EB97
:103FE0008100C078012803D1E9B22046FFF7DAFB4F
:103FF0006D1C2079A842EED8206806F0CCFC00F4B5
:104000008010B0F5801F2DD1012522E006F510604B
:1040100000EB4510D0F8009005EBC50104F1140049
:1040200000EB81000079012812D109F00040B0F1C5
:10403000004F0DD1012105EBC50204F1140000EB86
:104040008200C170E8B240F080012046FFF7AAFB71
:104050006D1C2079A842D9D82068406900F48010EE
:1040600021684861206806F096FC00F40010B0F565
:10407000001F44D1012538E006F5306000EB451003
:10408000D0F8009005EBC50104F5157000EB810038
:104090000079012828D109F00040B0F1004F23D168
:1040A00009F4803094F8D41401F0010188421BD146
:1040B000012105EBC50204F5157000EB8200C1700B
:1040C000DBF8180040F08000CBF81800DBF8140093
:1040D00000F0800040B940F60400805940F40071BF
:1040E00040F60400815103E06D1C2079A842C3D83A
:1040F00000BF2068406900F4001021684861206812
:1041000006F049FC00F08040B0F1804F08D1204615
:10411000FFF72DFB2068406900F08040216848616E
:10412000206806F038FC00F0040004280FD1206855
:10413000D0F8049009F00400042802D12046FFF7CB
:104140002DFB2068406840EA09002168486000BFF4
:10415000A9E4D0F8E00405F025BAD0F8E00405F0B1
:1041600036BAF8B504460CB90120F8BD266894F8B3
:10417000950428B9002084F89404204600F0A0F8A3
:10418000032084F89504B6F1A04F01D10021A1715C
:10419000206806F02BF8207C8DF8000094E80F00D2
:1041A00005F0F6FD20B1022084F895040120DCE73B
:1041B0000021206806F024FC20B1022084F8950438
:1041C0000120D2E7002531E0012105EBC50204F111
:1041D000140000EB8200417005EBC50104F11400EE
:1041E00000F8215005EBC50100EB8100458300215B
:1041F00005EBC50204F1140000EB8200017105EB30
:10420000C50204F1140000EB8200816005EBC502D9
:1042100004F1140000EB8200C16005EBC50204F15B
:10422000140000EB82000161681CC5B22079A8422D
:10423000CADC00252AE0002105EBC50204F5157053
:1042400000EB8200417005EBC50104F5157000F824
:104250002150002105EBC50200EB8200017105EB46
:10426000C50204F5157000EB8200816005EBC50204
:1042700004F5157000EB8200C16005EBC50204F582
:10428000157000EB82000161681CC5B22079A8425C
:10429000D1DC207C8DF8000094E80F0005F0B2FE20
:1042A00020B1022084F8950401205EE700206074AC
:1042B000012084F89504206805F092FE002054E760
:1042C00000B587B0002102910391049105910691F8
:1042D0000068B0F1A04F2BD11648016841F00101F0
:1042E0000160006800F0010001904FF4C05002909E
:1042F00002200390032005900A20069002A90E4890
:10430000FEF7F8FF0D48016841F0800101600C489C
:10431000016841F480410160006800F48040019030
:10432000002205214320FFF7A3F94320FFF78CF972
:1043300007B000BD3038024000000240343802406F
:104340004438024070B504460125E07900280ED0BB
:10435000022801D0FDF778FE2946D4F8E00405F0E4
:10436000A7F9D4F8E004BDE8704005F05AB900257B
:10437000F2E7D0F8E00405F084B9D0F8E00405F0E5
:104380008AB970B504460D4600BF94F8940401281C
:1043900001D1022070BD012084F8940400BF65742F
:1043A0002946206806F060FB00BF002084F89404D2
:1043B00000BF00BFEEE7D0F8E02400F29C411046B9
:1043C00005F082B970B50446256800BF94F89404DE
:1043D000012801D1022070BD012084F8940400BF9F
:1043E000E86800F0400030B1607B012803D1A86B81
:1043F00040F48030A863206806F022FA206805F0B7
:10440000DDFD00BF002084F8940400BF00BFE2E798
:1044100010B50446D4F8E00405F09AF92068D0F805
:10442000001E41F00101C0F8001EE07A002804D00F
:104430000248016841F00601016010BD10ED00E086
:10444000F8B5044600250026207800F0010020B9C8
:10445000207800F0040004282FD100205B498866F2
:10446000FFF748F8054606E0FFF744F8401B02282E
:1044700001D90320F8BD56480068C0F3C060002889
:10448000F2D160688101207A41EA0070504984319C
:10449000086001204D498866FFF72CF8054606E0C4
:1044A000FFF728F8401B022801D90320E2E748481B
:1044B0000068C0F3C0600028F2D0207800F002004D
:1044C00002287DD100BF00200090414840300068A4
:1044D00040F080503E49403108600846006800F0D6
:1044E0008050009000BF00BF3A48006840F48070E0
:1044F00038490860FEF7FEFF054606E0FEF7FAFFC2
:10450000401B022801D90320B4E73248006800F4B8
:1045100080700028F2D02E487030006800F4407699
:104520004EB3A08900F44070B04224D028487030C7
:10453000006820F4407601202749086000200860C8
:10454000234870300660006800F0010098B1FEF763
:10455000D1FF054608E0FEF7CDFF401B41F2883150
:10456000884201D9032085E7194870300068C0F3FC
:1045700040000028EFD000BFA08900F44070B0F5E3
:10458000407F0CD112480830006820F4F810134A1C
:10459000E168114008430E490831086007E00C4803
:1045A0000830006820F4F81009490831086008480C
:1045B00070300068A189C1F30B010843044900E091
:1045C00002E07031086000BF002053E7000047425E
:1045D0000038024000700040400E4742FFFCFF0FD1
:1045E00070B504460D460CB9012070BD58480068EE
:1045F00000F00700A84209D255490D70084600682E
:1046000000F00700A84201D00120EEE7207800F07A
:10461000020002281DD1207800F00400042805D1F2
:104620004C48006840F4E0504A490860207800F0A7
:104630000800082805D14748006840F46040454913
:1046400008604448006820F0F000A1680843414930
:104650000860207800F00100A8B36068012807D145
:104660003C4808380068C0F34040B8B90120BCE7B6
:104670006068022802D06068032807D135480838EE
:104680000068C0F3406048B90120AEE731480838FF
:104690000068C0F3400008B90120A6E72D48006873
:1046A00020F00300616808432A490860FEF722FFF2
:1046B000064609E0FEF71EFF801B41F28831884262
:1046C00002D9032091E707E02248006800F00C00BF
:1046D0006168B0EB810FEDD11D48006800F0070064
:1046E000A84209D91A490D700846006800F0070071
:1046F000A84201D0012078E7207800F004000428C7
:1047000007D11448006820F4E050E16808431149DB
:104710000860207800F00800082808D10D480068DB
:1047200020F46040216940EAC1000A49086000F0B5
:1047300061F808490968C1F30311074A515CC84090
:104740000649086006480068FEF704FF00204CE7B1
:10475000003C024008380240E1190108DC02002058
:10476000E40200200F2202600D4A126802F00302E8
:1047700042600B4A126802F0F0028260084A126836
:1047800002F4E052C260064A126802F46042D208A3
:104790000261044A126802F007020A6070470000D2
:1047A00008380240003C02400148006870470000A1
:1047B000DC02002000B5FFF7F7FF04490968C1F3E8
:1047C0008221034A515CC84000BD00000838024005
:1047D000F119010800B5FFF7E7FF04490968C1F3C3
:1047E0004231034A515CC84000BD00000838024015
:1047F000F11901082DE9F047002400250026A14603
:104800002548006800F00C0020B1042805D00828D5
:104810003AD105E0DFF8849039E0DFF8849036E0A3
:104820001D48001F006800F03F041B48001F00687F
:1048300000F4800078B11A481749091F0968C1F3CC
:104840008811A0FB01700146224600233846FBF781
:104850008BFD05460EE011480F49091F0968C1F399
:104860008811A0FB01700146224600233846FBF761
:104870007BFD05460848001F0068C0F30140401C4E
:104880004600B5FBF6F902E0DFF8109000BF00BF6C
:104890004846BDE8F0870000083802400024F400D4
:1048A000001BB700F8B504460CB90120F8BD20780C
:1048B00000F00100002874D0F948006800F00C00F6
:1048C00004280DD0F648006800F00C00082813D129
:1048D000F348001F006800F48000B0F5800F0BD192
:1048E000EF4808380068C0F34040002859D060689D
:1048F000002856D10120D9E700BF6068B0F5803F9D
:1049000008D1E7480838006840F48030E4490839A5
:1049100008601EE06068B0F5A02F0DD1E0480838AF
:10492000006840F48020DE490839086008460068C5
:1049300040F4803008600CE0D9480838006820F462
:104940008030D749083908600846006820F4802084
:10495000086000BF606890B1FEF7CCFD054606E038
:10496000FEF7C8FD401B642801D903209EE7CC4810
:1049700008380068C0F340400028F1D011E0FEF78D
:10498000B9FD054606E0FEF7B5FD401B642801D9D8
:1049900003208BE7C24808380068C0F34040002875
:1049A000F1D1207800F0020002285FD1BC480068F5
:1049B00000F00C0058B1BA48006800F00C0008285C
:1049C0001CD1B748001F006800F48000B0B9B4489B
:1049D00008380068C0F3400020B1E068012801D029
:1049E000012063E7AE480838006820F0F80021692C
:1049F00040EAC100AA490839086037E0E06800B31E
:104A00000120A8490860FEF775FD054606E0FEF79F
:104A100071FD401B022801D9032047E7A048083850
:104A20000068C0F340000028F1D09D4808380068B5
:104A300020F0F800216940EAC1009949083908606E
:104A400014E0002097490860FEF754FD054606E093
:104A5000FEF750FD401B022801D9032026E79048AD
:104A600008380068C0F340000028F1D1207800F039
:104A7000080008282CD16069A8B101208A49086083
:104A8000FEF738FD054606E0FEF734FD401B022820
:104A900001D903200AE782486C300068C0F3400067
:104AA0000028F1D014E000207F490860FEF722FDC5
:104AB000054606E0FEF71EFD401B022801D9032033
:104AC000F4E677486C300068C0F340000028F1D16C
:104AD000207800F00400042870D100277048383096
:104AE000006800F0805090B900BF002000906C4832
:104AF0003830006840F08050694938310860084615
:104B0000006800F08050009000BF00BF0127674898
:104B1000006800F48070B0B96448006840F48070A8
:104B200062490860FEF7E6FC054606E0FEF7E2FC97
:104B3000401B022801D90320B8E65C48006800F455
:104B400080700028F2D000BFA068012808D1544826
:104B50006830006840F001005149683108601DE08C
:104B6000A06805280DD14E486830006840F0040068
:104B70004B49683108600846006840F00100086051
:104B80000CE047486830006820F001004449683173
:104B900008600846006820F00400086000BFA068B4
:104BA000A8B1FEF7A7FC054609E0FEF7A3FC401BF1
:104BB00041F28831884202D9032077E626E038485E
:104BC00068300068C0F340000028EED013E0FEF724
:104BD00091FC054608E0FEF78DFC401B41F2883150
:104BE000884201D9032061E62D4868300068C0F38F
:104BF00040000028EFD1012F07D129483830006844
:104C000020F0805026493831086000BFA069002894
:104C100045D02348006800F00C0008285DD0A0694A
:104C2000022845D100201F490866FEF763FC0546AF
:104C300006E0FEF75FFC401B022801D9032035E6A1
:104C4000174808380068C0F340600028F1D1D4E963
:104C500007010843616A40EA81110122A06AC2EBA0
:104C6000500041EA00412C20005D41EA00600C49FF
:104C7000091F086001200B490866FEF73BFC05464A
:104C800006E0FEF737FC401B022801D903200DE6A1
:104C9000034808380068C0F340600028F1D049E0BC
:104CA0000838024000004742800E47420070004032
:104CB000002021490866FEF71DFC054606E0FEF7C8
:104CC00019FC401B022801D90320EFE51B480068AE
:104CD000C0F340600028F2D12CE0A069012800D187
:104CE000E4E51648001D0668A069012820D006F4F6
:104CF0008001E06981421BD106F03F01206A8142B8
:104D000016D147F6C0703040616AB0EB811F0FD1F9
:104D100006F440310122A06AC2EB5000B1EB004F13
:104D200006D106F070612C20005DB1EB006F01D060
:104D30000120BBE50020B9E50000474200380240F1
:104D400070B5044601250CB9012070BD607F20B903
:104D500000202077204600F04DF802206077206880
:104D6000C068C0F3001000283CD100BFCA202168F1
:104D7000486253202168486200BF204602F0B7FD18
:104D80000546EDB9206880681949084021688860A7
:104D9000216960680843616908432168896808439C
:104DA000216888602168E0680861206801692089BD
:104DB00041EA004021680861204602F0BDFD054639
:104DC0005DB92068006C20F48020216808642068A8
:104DD000006CA16908432168086400BFFF202168B6
:104DE000486200E000250DB9012060772846ACE755
:104DF000BFFF8FFF1FB50446002000900190029076
:104E000003900949206888420CD1022000900002DA
:104E100003906846FFF714FB08B1FDF715F9012070
:104E2000024908601FBD0000002800403C0E4742B8
:104E30002DE9F04105460C4617464FF0000800BF2B
:104E4000287F012802D10220BDE8F08101202877C7
:104E500000BF022068774FB9607800F0100010287A
:104E600004D1607800F0EF000A30607087B9E07814
:104E700002F030FD0304607802F02CFD43EA0023C9
:104E8000A07802F027FD0343207843EA403809E088
:104E9000E0780004617840EA0120A1780843217895
:104EA00040EA413800BFCA20296848625320296877
:104EB000486200BF284602F01AFD064646B90B4874
:104EC00008EA000029684860284602F035FD0646D9
:104ED0000EB90120687700BFFF202968486200BF33
:104EE00000BF0020287700BF3046ADE73FFFFF003E
:104EF0002DE9F04104460D4617464FF0000800BF6B
:104F0000207F012802D10220BDE8F0810120207716
:104F100000BF02206077CFB92068806800F04000B1
:104F200000B102E00020E87000BF287802F0D2FC57
:104F30000304687802F0CEFC43EA0023A87802F06C
:104F4000C9FC0343E87843EA805812E0206880688F
:104F500000F0400000B102E00020E87000BF2878B7
:104F60000004697840EA0120A9780843E97840EA1A
:104F7000815800BFCA2021684862532021684862D6
:104F800000BF204602F0B3FC0646B6B9124808EA54
:104F90000000216808602068806820F48020216873
:104FA0008860D5E9030108432168896808432168BE
:104FB0008860204602F0C0FC06460EB901206077EA
:104FC00000BFFF202168486200BF00BF002020779B
:104FD00000BF304698E700007F7F7F0070B5044631
:104FE00000250B482168C860FEF784FA054607E0F3
:104FF000FEF780FA401BB0F57A7F01D9032070BD1F
:105000002068C06800F020000028F1D00020F6E7FA
:105010005F7F010010B504460CB9012010BD606A25
:1050200038B96068B0F5827F00D105E00021E16108
:1050300002E00021216161610021A16294F8510028
:1050400028B9002084F85000204600F047F80220DC
:1050500084F851002068006820F040002168086052
:10506000A08800F48270218901F404410843A189D9
:1050700001F400610843217C01F002010843217D15
:1050800001F001010843218B01F400710843217FE5
:1050900001F0380108432021095D01F08001084337
:1050A000218D01F400510843216808600421A069A2
:1050B00001EA104094F8241001F01001084321681F
:1050C00048602068C06920F400602168C861002041
:1050D0006065012084F8510000209FE710B586B07C
:1050E0000446142101A8FBF72DFA1B4920688842C9
:1050F00030D100BF002000901848006840F4804084
:10510000164908600846006800F48040009000BF1F
:1051100000BF00BF0020009010481038006840F029
:1051200002000E49103908600846006800F00200CD
:10513000009000BF00BF4FF4604001900220029039
:1051400000200390032004900520059001A9044845
:10515000FEF7D0F806B010BD0038004040380240DD
:10516000000402407047704730B502460B4600BF4E
:1051700092F83C00012801D1022030BD012082F8C4
:105180003C0000BF022082F83D00106844681068AF
:10519000816824F070041868044310684460184D56
:1051A0001068A8421BD01068B0F1804F17D0154D81
:1051B0001068A84213D0144D1068A8420FD0134DA8
:1051C0001068A8420BD0124D1068A84207D0114DAC
:1051D0001068A84203D0104D1068A84205D121F0F4
:1051E00080015868014310688160012082F83D0009
:1051F00000BF002082F83C0000BF00BFBDE70000F8
:10520000000001400004004000080040000C004085
:1052100000040140004001400018004010B5044661
:105220000CB9012010BD94F83D0028B9002084F885
:105230003C00204600F026F8022084F83D00211DA5
:10524000206802F045FE012084F8460000BF84F883
:105250003E0001213F2001554020015541200155CC
:1052600000BF00BF012084F84200432001554420C4
:1052700001554520015500BF012084F83D00002064
:10528000D0E7000008B50A4A016891420FD100BF7B
:10529000002100910749096841F00801054A1160A1
:1052A0001146096801F00801009100BF00BF08BD68
:1052B000000C004040380240014691F83D000128B2
:1052C00001D001207047022081F83D001A4B086888
:1052D00098421BD00868B0F1804F17D0174B086870
:1052E000984213D0164B086898420FD0154B0868A7
:1052F00098420BD0144B0868984207D0134B0868AB
:10530000984203D0124B086898420CD10868806814
:1053100000F00702062A0CD00868006840F001007F
:105320000B68186005E00868006840F001000B6831
:1053300018600020C6E700000000014000040040A3
:1053400000080040000C0040000401400040014003
:1053500000180040014691F83D00012801D00120CD
:105360007047022081F83D000868C06840F00100E5
:105370000B68D8601A4B086898421BD00868B0F1D7
:10538000804F17D0174B0868984213D0164B086807
:1053900098420FD0154B086898420BD0144B086800
:1053A000984207D0134B0868984203D0124B086804
:1053B00098420CD10868806800F00702062A0CD0D9
:1053C0000868006840F001000B68186005E0086894
:1053D000006840F001000B6818600020C0E7000082
:1053E000000001400004004000080040000C0040A4
:1053F0000004014000400140001800402DE9F04148
:1054000004460D46002700BF94F83C00012802D155
:105410000220BDE8F081012084F83C0000BF02209A
:1054200084F83D002068866826F0770626F47F46DB
:10543000206886602868502833D00CDC202850D0A3
:1054400004DC00284BD0102851D149E0302849D045
:1054500040284CD139E060282DD0702807D0B0F515
:10546000805F03D0B0F5005F41D10DE041E0D5E9A8
:1054700002136A68206802F0B0FD2068866846F072
:1054800077062068866034E0D5E902136A682068F0
:1054900002F0A3FD2068806840F4804021688860A5
:1054A00027E0EA686968206802F088FE50212068D9
:1054B00002F09EFD1DE0EA686968206802F091FE36
:1054C0006021206802F094FD13E0EA6869682068B2
:1054D00002F074FE4021206802F08AFD09E000BF5E
:1054E00000BF00BF2968206802F082FD01E00127AB
:1054F00000BF00BF012084F83D0000BF002084F8F9
:105500003C0000BF384684E7704770B50446206809
:10551000C5682068066906F00200022819D105F066
:105520000200022815D1401F216808610120207760
:105530002068806900F0030018B12046FFF7E4FFFF
:1055400005E0204600F0DAF8204600F08EF9002051
:10555000207706F00400042819D105F0040004287F
:1055600015D1C04321680861022020772068806936
:1055700000F4407018B12046FFF7C6FF05E0204652
:1055800000F0BCF8204600F070F90020207706F00B
:105590000800082819D105F00800082815D1C043D3
:1055A00021680861042020772068C06900F00300AA
:1055B00018B12046FFF7A8FF05E0204600F09EF84E
:1055C000204600F052F90020207706F01000102845
:1055D00019D105F01000102815D1C04321680861C9
:1055E000082020772068C06900F4407018B1204678
:1055F000FFF78AFF05E0204600F080F8204600F023
:1056000034F90020207706F0010048B105F00100D0
:1056100030B16FF0010021680861204600F0ACF95C
:1056200006F08000802809D105F08000802805D18F
:10563000C043216808612046FFF794FD06F0400052
:10564000402809D105F04000402805D1C043216819
:105650000861204600F09CF906F02000202809D1BE
:1056600005F02000202805D1C043216808612046AC
:10567000FFF779FD70BD000010B586B00446142117
:1056800001A8FAF75FFF1949206888422CD100BFB2
:10569000002000901648006840F08000144908601F
:1056A0000846006800F08000009000BF00BF4FF483
:1056B000E05001900220029001200390022004900B
:1056C000059001A90B48FDF715FE0B48FFF7F4FD07
:1056D0000021094800F0CAF80421074800F0C6F884
:1056E0000821054800F0C2F806B010BD000C0040CB
:1056F00030380240001C0240680B002070472DE942
:10570000F04104460D461646002700BF94F83C00C1
:10571000012802D10220BDE8F081012084F83C007C
:1057200000BF36B1042E1BD0082E31D00C2E5ED116
:1057300045E02946206802F065FC2068806940F059
:105740000800216888612068806920F004002168D1
:10575000886120688069296908432168886148E078
:105760002946206802F086FC2068806940F40060C9
:10577000216888612068806920F4806021688861E0
:1057800020688069296940EA01202168886130E049
:105790002946206802F0ACFC2068C06940F008008F
:1057A0002168C8612068C06920F004002168C861D0
:1057B0002068C069296908432168C86119E0294641
:1057C000206802F0D1FC2068C06940F400602168C4
:1057D000C8612068C06920F480602168C8612068C1
:1057E000C069296940EA01202168C86101E00127F8
:1057F00000BF00BF00BF002084F83C0000BF384657
:1058000089E710B504460CB9012010BD94F83D009D
:1058100028B9002084F83C00204600F025F802203A
:1058200084F83D00211D206802F052FB012084F81D
:10583000460000BF84F83E0001213F200155402072
:1058400001554120015500BF00BF012084F84200EE
:1058500043200155442001554520015500BF01203A
:1058600084F83D000020D0E77047704770B50446CB
:105870000D4615B994F83E000BE0042D02D13F20EF
:10588000005D06E0082D02D14020005D01E04120CE
:10589000005D012801D0012070BD1DB9022084F8EF
:1058A0003E000EE0042D03D102213F20015508E007
:1058B000082D03D102214020015502E002214120A0
:1058C000015501222946206802F076FB2349206811
:1058D000884203D022492068884201D1012000E09B
:1058E000002028B12068406C40F4004021684864E2
:1058F0001A49206888421BD02068B0F1804F17D029
:1059000018492068884213D01749206888420FD070
:105910001649206888420BD011492068884207D078
:1059200013492068884203D01249206888420CD16C
:105930002068806800F00706062E0CD020680068FA
:1059400040F001002168086005E02068006840F030
:1059500001002168086000209EE70000000001406F
:10596000000401400004004000080040000C00401A
:10597000004001400018004010B50446034920686B
:10598000884201D1FDF7BCFD10BD000000000140C0
:105990007047F8B504460E46174694F84200202892
:1059A0002ED106B10FB90120F8BD012020630020DF
:1059B00060633A463146204602F0B2FE0546EDB934
:1059C000206B012819D100BF0020009020680068DA
:1059D000009020684068009000BF00BF00BF00BF7B
:1059E00021680C3151E8001F41F0100021680C3192
:1059F00041E80002002AF3D100E001252846D3E760
:105A00000220D1E770B504460D461349206888424C
:105A100019D11248007840B14C2211491148FAF7C7
:105A20001AFD00200D49087008E04C220C490D4871
:105A30004C38FAF710FD0120084908704C2208493B
:105A40000948FFF7A6FF09492068884202D10848A3
:105A500000F0A4FB70BD000000100140EC0000202D
:105A6000B812002050130020B00B00200014014099
:105A7000400C0020704700002DE9F84F04462068D4
:105A800005682068C668206847694FF00009CA4663
:105A900005F00F09B9F1000F0AD105F0200038B167
:105AA00006F0200020B1204602F0A6FCBDE8F88FE9
:105AB000B9F1000F7CD007F0010018B906F490701E
:105AC000002875D005F0010030B106F4807018B1DF
:105AD000606C40F00100606405F0040030B107F034
